:100000000C9434000C9451000C9451000C94510049
:100010000C9451000C9451000C9451000C9451001C
:100020000C9451000C9451000C9451000C9451000C
:100030000C9451000C9451000C9451000C945100FC
:100040000C9451000C9451000C9451000C945100EC
:100050000C9451000C9451000C9451000C945100DC
:100060000C9451000C94510011241FBECFEFD8E026
:10007000DEBFCDBF11E0A0E0B1E0E8E4F8E002C0EF
:1000800005900D92A83FB107D9F722E0A8EFB1E0A3
:1000900001C01D92A236B207E1F70E9478000C94CD
:1000A00022040C940000CF93C82F8A3019F48DE0FD
:1000B0000E9453008091C00085FFFCCFC093C60012
:1000C00090E080E0CF9108958091C00087FFFCCF41
:1000D0008091C60090E008951092C50087E6809355
:1000E000C40088E18093C10086E08093C200089537
:1000F0000E946C0086EE91E090935D0280935C021A
:1001000088ED91E090935F0280935E0236E0932E3B
:1001100004EF11E088EF91E00E94ED0088EF91E09C
:10012000FC0101900020E9F7CF01895F914028EFA1
:10013000E22E21E0F22ED0E0C0E09C0121503109F6
:100140006901FC0132975F01CC15DD052CF08AE0D6
:1001500090E00E942C01DECFF70181907F01882D75
:10016000082C000C990B9C01205331092A303105D1
:1001700030F00E94E200892B11F4E89485F8882D74
:10018000082C000C990BF0E4F8150CF40797C097B5
:10019000989E9001999E300D112420503F4F3F931F
:1001A0002F931F930F930E9418010F900F900F90A1
:1001B0000F90CA15DB0524F480E290E00E942C0128
:1001C0002196C2CF85FD0C940603806291110C9498
:1001D000060381568A51D8F708950F931F93CF9342
:1001E000DF93D82FC92FE0915C02F0915D028381EB
:1001F0000D2F192F80FD07C080E090E0DF91CF9197
:100200001F910F91089580915C0290915D020E9470
:100210001F039C012F3F320779F3F80121938F01CF
:100220002A30310581F7319710828D2F9C2FE6CF30
:10023000B0E0A0E0EEE1F1E00C94FB03FE013596A6
:1002400061917191AF0180915E0290915F020E9475
:100250003301E2E00C94170460915E0270915F023A
:100260000E945D030895AFE0B0E0E9E3F1E00C9493
:10027000EB037C013B018A01DC0117961C921E9264
:10028000169713968C9181FFBEC19AE0292EFE012C
:1002900031964F01D70113969C91F30193FD8591FF
:1002A00093FF81913F01882309F444C1853239F4D9
:1002B00093FD859193FF81913F01853229F4B70128
:1002C00090E00E945D03E6CFB12C412C512CBFE1A0
:1002D000B51538F08B3209F188F4803201F18332A0
:1002E00021F157FC3AC020ED280F2A3040F556FE88
:1002F0001FC0B29C200D1124B22E06C08D3291F089
:10030000803379F7689450F8F30193FD859193FF5A
:1003100081913F018111DBCF20C0689451F868942E
:1003200052F8F2CF689453F8EFCF689454F8ECCFBA
:10033000429C200D1124422E689455F8E5CF8E3250
:1003400029F456FCF7C0689456F8DECF8C3619F4C1
:10035000689457F8D9CF8836B9F2982F9F7D955475
:100360009330C0F0833681F18337A1F1833509F0F2
:100370005BC0D801CD90DD908D016B2D70E056FCF7
:1003800002C06FEF7FEFC6010E9409035C01689411
:1003900057F80AC00C5F1F4FEFE3E983AA24A39428
:1003A000B12C6401E89457F853FE29C0342CA114F1
:1003B000B10451F5332009F46DCFB70180E290E02C
:1003C0000E945D033A94F6CFD8018C9189830E5F29
:1003D0001F4FE4CFF801C190D1908F016B2D70E0D9
:1003E00056FC02C06FEF7FEFC6010E9414035C0150
:1003F000D9CFB70180E290E00E945D034A944A148D
:100400001B0409F0B0F7D2CFF60157FC859157FED7
:1004100081916F01B70190E00E945D0331103A9421
:10042000B1E0AB1AB108C3CF843619F0893609F0B0
:1004300071C0F80157FE67C06191719181919191EE
:100440008F01E52DEF76DE2E97FF09C09095809500
:10045000709561957F4F8F4F9F4F6894D7F82AE032
:1004600030E0A4010E948D03C82EC818AC2C5D2C6E
:10047000D6FE0CC0E89450F8CB1440F4D4FE05C06E
:10048000D2FC03C05D2D5E7E552EAB2C54FE93C076
:10049000FE01EC0DF11D8081803309F085C0652DD2
:1004A000697E562E752D7870372E53FC93C050FE02
:1004B0008DC0BC2CA41410F4B40CBA1854FE90C017
:1004C000B70180E390E00E945D0352FE07C088E719
:1004D00051FC88E590E0B7010E945D03CB1408F45D
:1004E0008BC0CA94D12C8FEFC81AD80AC80CD91C5B
:1004F000D6018E916D01B70190E00E945D038C14CE
:100500009D04B1F757CF61917191072E000C880BB4
:10051000990B96CFD52CE894D4F82AE0853729F1A9
:10052000F52DF97FDF2E8037A1F058F48835A1F042
:100530008F36D1F0F701868197812F96E2E10C94F6
:1005400007048837B9F7D4FE02C06894D2F820E1D6
:100550000CC06894D4F8F7CF54FE03C02F2F266048
:10056000D22E20E132E002C028E030E0F801D7FED0
:1005700015C041915191619171914C875D876E8752
:100580007F878F01A4016C857D858E859F850E9464
:100590008D03C82EC818E894D7F868CF819191913F
:1005A000AC0170E060E0E9CF52FC02C0A3947ACFC6
:1005B000A394A39477CF852D867809F473CFF6CFD3
:1005C000B70180E290E00E945D03A394A414C0F3FD
:1005D000312C74CF342C3A18A41408F46FCFF8CF10
:1005E000852D867809F47ACF8BE251FE80E257FCA4
:1005F0008DE2B70190E070CFB70180E390E00E94F8
:100600005D03BA946BCF8FEF9FEF97CF9927882721
:100610000895FC010590615070400110D8F7809555
:1006200090958E0F9F1F0895FC01615070400190BE
:100630000110D8F7809590958E0F9F1F0895CF9346
:10064000DF93EC018B8180FF33C086FF0CC08F7B72
:100650008B838E819F8101969F838E838A8190E018
:10066000DF91CF91089582FF15C0E881F9819081D3
:10067000292F092E000C330B80629923C1F031968B
:10068000F983E8838E819F8101969F838E83C901C0
:100690009927E6CFEA85FB85CE0109959C0197FF56
:1006A000F1CF9B812F3F3F4F31F080E2892B8B832D
:1006B0008FEF9FEFD5CF80E1F9CF0F931F93CF93AB
:1006C000DF93182F092FEB018B8181FD09C01FEFEC
:1006D0000FEF812F902FDF91CF911F910F910895F0
:1006E00082FF14C02E813F818C819D81281739079C
:1006F0003CF4E881F981CF010196998388831083C6
:100700008E819F8101969F838E83E3CFE885F98553
:10071000812F0995892BA1F3DACFFA01AA27283076
:1007200051F1203181F1E8946F936E7F6E5F7F4FBE
:100730008F4F9F4FAF4FB1E03ED0B4E03CD0670F3A
:10074000781F891F9A1FA11D680F791F8A1F911D8D
:10075000A11D6A0F711D811D911DA11D20D009F4DD
:1007600068943F912AE0269F11243019305D31931F
:10077000DEF6CF010895462F4770405D4193B3E008
:100780000FD0C9F7F6CF462F4F70405D4A3318F0AF
:10079000495D31FD4052419302D0A9F7EACFB4E060
:1007A000A6959795879577956795BA95C9F7009718
:1007B0006105710508959B01AC010A2E06945795B9
:1007C000479537952795BA95C9F7620F731F841F10
:1007D000951FA01D08952F923F924F925F926F92A6
:1007E0007F928F929F92AF92BF92CF92DF92EF92C1
:1007F000FF920F931F93CF93DF93CDB7DEB7CA1B42
:10080000DB0B0FB6F894DEBF0FBECDBF09942A886C
:10081000398848885F846E847D848C849B84AA8414
:10082000B984C884DF80EE80FD800C811B81AA81A1
:10083000B981CE0FD11D0FB6F894DEBF0FBECDBF6C
:08084000ED010895F894FFCFCB
:100848002D2D2D2D2D002E2D2D2D2D002E2E2D2D27
:100858002D002E2E2E2D2D002E2E2E2E2D002E2E3E
:100868002E2E2E002D2E2E2E2E002D2D2E2E2E002D
:100878002D2D2D2E2E002D2D2D2D2E002E2D000050
:1008880000002D2E2E2E00002D2E2D2E00002D2E98
:100898002E0000002E00000000002E2E2D2E00003D
:1008A8002D2D2E0000002E2E2E2E00002E2E0000A4
:1008B80000002E2D2D2D00002D2E2D0000002E2D98
:1008C8002E2E00002D2D000000002D2E000000000F
:1008D8002D2D2D0000002E2D2D2E00002D2D2E2D1E
:1008E80000002E2D2E0000002E2E2E0000002D00C0
:1008F800000000002E2E2D0000002E2E2E2D0000B0
:100908002E2D2D0000002D2E2E2D00002D2E2D2DEC
:1009180000002D2D2E2E0000000000020000000017
:10092800530000000000000000010000000000006B
:080938006400000025730000BB
:00000001FF
